{"contracts/facets/CounterFacet.sol":{"CounterFacet":{"abi":[{"anonymous":false,"inputs":[{"indexed":false,"internalType":"uint256","name":"newValue","type":"uint256"}],"name":"CounterDecremented","type":"event"},{"anonymous":false,"inputs":[{"indexed":false,"internalType":"uint256","name":"newValue","type":"uint256"}],"name":"CounterIncremented","type":"event"},{"anonymous":false,"inputs":[],"name":"CounterReset","type":"event"},{"inputs":[],"name":"decrement","outputs":[],"stateMutability":"nonpayable","type":"function"},{"inputs":[],"name":"getCounter","outputs":[{"internalType":"uint256","name":"","type":"uint256"}],"stateMutability":"view","type":"function"},{"inputs":[],"name":"increment","outputs":[],"stateMutability":"nonpayable","type":"function"},{"inputs":[{"internalType":"uint256","name":"_amount","type":"uint256"}],"name":"incrementBy","outputs":[],"stateMutability":"nonpayable","type":"function"},{"inputs":[],"name":"resetCounter","outputs":[],"stateMutability":"nonpayable","type":"function"}],"evm":{"bytecode":{"linkReferences":{},"object":"608060405234801561001057600080fd5b5061037f806100206000396000f3fe608060405234801561001057600080fd5b50600436106100575760003560e01c806303df179c1461005c5780632baeceb7146100715780638ada066e14610079578063d09de08a1461009b578063dbdf7fce146100a3575b600080fd5b61006f61006a3660046102ce565b6100ab565b005b61006f61012f565b60008051602061032a8339815191525460405190815260200160405180910390f35b61006f610213565b61006f610291565b60008051602061032a83398151915280547f31c1f8402397e5b1e3d75f3da7207ce6f54556b27afe723742768c4e4be50ce09183916000906100ee9084906102fd565b909155505060068101546040519081527f3cf8b50771c17d723f2cb711ca7dadde485b222e13c84ba0730a14093fad6d5c9060200160405180910390a15050565b60008051602061032a833981519152547f31c1f8402397e5b1e3d75f3da7207ce6f54556b27afe723742768c4e4be50ce0906101bd5760405162461bcd60e51b8152602060048201526024808201527f436f756e7465723a2063616e6e6f742064656372656d656e742062656c6f77206044820152637a65726f60e01b606482015260840160405180910390fd5b60018160060160008282546101d29190610316565b909155505060068101546040519081527f1a00a27c962d5410357331e1a8cffff62058bd0161ad624818df31152f1eeb45906020015b60405180910390a150565b60008051602061032a83398151915280547f31c1f8402397e5b1e3d75f3da7207ce6f54556b27afe723742768c4e4be50ce0916001916000906102579084906102fd565b909155505060068101546040519081527f3cf8b50771c17d723f2cb711ca7dadde485b222e13c84ba0730a14093fad6d5c90602001610208565b600060008051602061032a8339815191528190556040517f79e13020b0c9b840ddf270793ab373525f9456e10bbba08dbe94217994736ec89190a1565b6000602082840312156102e057600080fd5b5035919050565b634e487b7160e01b600052601160045260246000fd5b80820180821115610310576103106102e7565b92915050565b81810381811115610310576103106102e756fe31c1f8402397e5b1e3d75f3da7207ce6f54556b27afe723742768c4e4be50ce6a2646970667358221220e97fe6c9aba8f5bd737e614d798b0cdd91409d59dc67e1b5bf458c97e348687864736f6c63430008140033","opcodes":"PUSH1 0x80 PUSH1 0x40 MSTORE CALLVALUE DUP1 ISZERO PUSH2 0x10 JUMPI PUSH1 0x0 DUP1 REVERT JUMPDEST POP PUSH2 0x37F DUP1 PUSH2 0x20 PUSH1 0x0 CODECOPY PUSH1 0x0 RETURN INVALID PUSH1 0x80 PUSH1 0x40 MSTORE CALLVALUE DUP1 ISZERO PUSH2 0x10 JUMPI PUSH1 0x0 DUP1 REVERT JUMPDEST POP PUSH1 0x4 CALLDATASIZE LT PUSH2 0x57 JUMPI PUSH1 0x0 CALLDATALOAD PUSH1 0xE0 SHR DUP1 PUSH4 0x3DF179C EQ PUSH2 0x5C JUMPI DUP1 PUSH4 0x2BAECEB7 EQ PUSH2 0x71 JUMPI DUP1 PUSH4 0x8ADA066E EQ PUSH2 0x79 JUMPI DUP1 PUSH4 0xD09DE08A EQ PUSH2 0x9B JUMPI DUP1 PUSH4 0xDBDF7FCE EQ PUSH2 0xA3 JUMPI JUMPDEST PUSH1 0x0 DUP1 REVERT JUMPDEST PUSH2 0x6F PUSH2 0x6A CALLDATASIZE PUSH1 0x4 PUSH2 0x2CE JUMP JUMPDEST PUSH2 0xAB JUMP JUMPDEST STOP JUMPDEST PUSH2 0x6F PUSH2 0x12F JUMP JUMPDEST PUSH1 0x0 DUP1 MLOAD PUSH1 0x20 PUSH2 0x32A DUP4 CODECOPY DUP2 MLOAD SWAP2 MSTORE SLOAD PUSH1 0x40 MLOAD SWAP1 DUP2 MSTORE PUSH1 0x20 ADD PUSH1 0x40 MLOAD DUP1 SWAP2 SUB SWAP1 RETURN JUMPDEST PUSH2 0x6F PUSH2 0x213 JUMP JUMPDEST PUSH2 0x6F PUSH2 0x291 JUMP JUMPDEST PUSH1 0x0 DUP1 MLOAD PUSH1 0x20 PUSH2 0x32A DUP4 CODECOPY DUP2 MLOAD SWAP2 MSTORE DUP1 SLOAD PUSH32 0x31C1F8402397E5B1E3D75F3DA7207CE6F54556B27AFE723742768C4E4BE50CE0 SWAP2 DUP4 SWAP2 PUSH1 0x0 SWAP1 PUSH2 0xEE SWAP1 DUP5 SWAP1 PUSH2 0x2FD JUMP JUMPDEST SWAP1 SWAP2 SSTORE POP POP PUSH1 0x6 DUP2 ADD SLOAD PUSH1 0x40 MLOAD SWAP1 DUP2 MSTORE PUSH32 0x3CF8B50771C17D723F2CB711CA7DADDE485B222E13C84BA0730A14093FAD6D5C SWAP1 PUSH1 0x20 ADD PUSH1 0x40 MLOAD DUP1 SWAP2 SUB SWAP1 LOG1 POP POP JUMP JUMPDEST PUSH1 0x0 DUP1 MLOAD PUSH1 0x20 PUSH2 0x32A DUP4 CODECOPY DUP2 MLOAD SWAP2 MSTORE SLOAD PUSH32 0x31C1F8402397E5B1E3D75F3DA7207CE6F54556B27AFE723742768C4E4BE50CE0 SWAP1 PUSH2 0x1BD JUMPI PUSH1 0x40 MLOAD PUSH3 0x461BCD PUSH1 0xE5 SHL DUP2 MSTORE PUSH1 0x20 PUSH1 0x4 DUP3 ADD MSTORE PUSH1 0x24 DUP1 DUP3 ADD MSTORE PUSH32 0x436F756E7465723A2063616E6E6F742064656372656D656E742062656C6F7720 PUSH1 0x44 DUP3 ADD MSTORE PUSH4 0x7A65726F PUSH1 0xE0 SHL PUSH1 0x64 DUP3 ADD MSTORE PUSH1 0x84 ADD PUSH1 0x40 MLOAD DUP1 SWAP2 SUB SWAP1 REVERT JUMPDEST PUSH1 0x1 DUP2 PUSH1 0x6 ADD PUSH1 0x0 DUP3 DUP3 SLOAD PUSH2 0x1D2 SWAP2 SWAP1 PUSH2 0x316 JUMP JUMPDEST SWAP1 SWAP2 SSTORE POP POP PUSH1 0x6 DUP2 ADD SLOAD PUSH1 0x40 MLOAD SWAP1 DUP2 MSTORE PUSH32 0x1A00A27C962D5410357331E1A8CFFFF62058BD0161AD624818DF31152F1EEB45 SWAP1 PUSH1 0x20 ADD JUMPDEST PUSH1 0x40 MLOAD DUP1 SWAP2 SUB SWAP1 LOG1 POP JUMP JUMPDEST PUSH1 0x0 DUP1 MLOAD PUSH1 0x20 PUSH2 0x32A DUP4 CODECOPY DUP2 MLOAD SWAP2 MSTORE DUP1 SLOAD PUSH32 0x31C1F8402397E5B1E3D75F3DA7207CE6F54556B27AFE723742768C4E4BE50CE0 SWAP2 PUSH1 0x1 SWAP2 PUSH1 0x0 SWAP1 PUSH2 0x257 SWAP1 DUP5 SWAP1 PUSH2 0x2FD JUMP JUMPDEST SWAP1 SWAP2 SSTORE POP POP PUSH1 0x6 DUP2 ADD SLOAD PUSH1 0x40 MLOAD SWAP1 DUP2 MSTORE PUSH32 0x3CF8B50771C17D723F2CB711CA7DADDE485B222E13C84BA0730A14093FAD6D5C SWAP1 PUSH1 0x20 ADD PUSH2 0x208 JUMP JUMPDEST PUSH1 0x0 PUSH1 0x0 DUP1 MLOAD PUSH1 0x20 PUSH2 0x32A DUP4 CODECOPY DUP2 MLOAD SWAP2 MSTORE DUP2 SWAP1 SSTORE PUSH1 0x40 MLOAD PUSH32 0x79E13020B0C9B840DDF270793AB373525F9456E10BBBA08DBE94217994736EC8 SWAP2 SWAP1 LOG1 JUMP JUMPDEST PUSH1 0x0 PUSH1 0x20 DUP3 DUP5 SUB SLT ISZERO PUSH2 0x2E0 JUMPI PUSH1 0x0 DUP1 REVERT JUMPDEST POP CALLDATALOAD SWAP2 SWAP1 POP JUMP JUMPDEST PUSH4 0x4E487B71 PUSH1 0xE0 SHL PUSH1 0x0 MSTORE PUSH1 0x11 PUSH1 0x4 MSTORE PUSH1 0x24 PUSH1 0x0 REVERT JUMPDEST DUP1 DUP3 ADD DUP1 DUP3 GT ISZERO PUSH2 0x310 JUMPI PUSH2 0x310 PUSH2 0x2E7 JUMP JUMPDEST SWAP3 SWAP2 POP POP JUMP JUMPDEST DUP2 DUP2 SUB DUP2 DUP2 GT ISZERO PUSH2 0x310 JUMPI PUSH2 0x310 PUSH2 0x2E7 JUMP INVALID BALANCE 0xC1 0xF8 BLOCKHASH 0x23 SWAP8 0xE5 0xB1 0xE3 0xD7 PUSH0 RETURNDATASIZE 0xA7 KECCAK256 PUSH29 0xE6F54556B27AFE723742768C4E4BE50CE6A2646970667358221220E97F 0xE6 0xC9 0xAB 0xA8 CREATE2 0xBD PUSH20 0x7E614D798B0CDD91409D59DC67E1B5BF458C97E3 BASEFEE PUSH9 0x7864736F6C63430008 EQ STOP CALLER "},"methodIdentifiers":{"decrement()":"2baeceb7","getCounter()":"8ada066e","increment()":"d09de08a","incrementBy(uint256)":"03df179c","resetCounter()":"dbdf7fce"}}}}}