{
  "_format": "hh-sol-artifact-1",
  "contractName": "ERC20Facet",
  "sourceName": "contracts/facets/ERC20Facet.sol",
  "abi": [
    {
      "inputs": [
        {
          "internalType": "address",
          "name": "spender",
          "type": "address"
        },
        {
          "internalType": "uint256",
          "name": "allowance",
          "type": "uint256"
        },
        {
          "internalType": "uint256",
          "name": "needed",
          "type": "uint256"
        }
      ],
      "name": "ERC20InsufficientAllowance",
      "type": "error"
    },
    {
      "inputs": [
        {
          "internalType": "address",
          "name": "sender",
          "type": "address"
        },
        {
          "internalType": "uint256",
          "name": "balance",
          "type": "uint256"
        },
        {
          "internalType": "uint256",
          "name": "needed",
          "type": "uint256"
        }
      ],
      "name": "ERC20InsufficientBalance",
      "type": "error"
    },
    {
      "inputs": [
        {
          "internalType": "address",
          "name": "approver",
          "type": "address"
        }
      ],
      "name": "ERC20InvalidApprover",
      "type": "error"
    },
    {
      "inputs": [
        {
          "internalType": "address",
          "name": "receiver",
          "type": "address"
        }
      ],
      "name": "ERC20InvalidReceiver",
      "type": "error"
    },
    {
      "inputs": [
        {
          "internalType": "address",
          "name": "sender",
          "type": "address"
        }
      ],
      "name": "ERC20InvalidSender",
      "type": "error"
    },
    {
      "inputs": [
        {
          "internalType": "address",
          "name": "spender",
          "type": "address"
        }
      ],
      "name": "ERC20InvalidSpender",
      "type": "error"
    },
    {
      "inputs": [
        {
          "internalType": "address",
          "name": "_user",
          "type": "address"
        },
        {
          "internalType": "address",
          "name": "_contractOwner",
          "type": "address"
        }
      ],
      "name": "NotContractOwner",
      "type": "error"
    },
    {
      "anonymous": false,
      "inputs": [
        {
          "indexed": true,
          "internalType": "address",
          "name": "owner",
          "type": "address"
        },
        {
          "indexed": true,
          "internalType": "address",
          "name": "spender",
          "type": "address"
        },
        {
          "indexed": false,
          "internalType": "uint256",
          "name": "value",
          "type": "uint256"
        }
      ],
      "name": "Approval",
      "type": "event"
    },
    {
      "anonymous": false,
      "inputs": [
        {
          "indexed": true,
          "internalType": "address",
          "name": "from",
          "type": "address"
        },
        {
          "indexed": true,
          "internalType": "address",
          "name": "to",
          "type": "address"
        },
        {
          "indexed": false,
          "internalType": "uint256",
          "name": "value",
          "type": "uint256"
        }
      ],
      "name": "Transfer",
      "type": "event"
    },
    {
      "inputs": [
        {
          "internalType": "address",
          "name": "_owner",
          "type": "address"
        },
        {
          "internalType": "address",
          "name": "_spender",
          "type": "address"
        }
      ],
      "name": "allowance",
      "outputs": [
        {
          "internalType": "uint256",
          "name": "",
          "type": "uint256"
        }
      ],
      "stateMutability": "view",
      "type": "function"
    },
    {
      "inputs": [
        {
          "internalType": "address",
          "name": "_spender",
          "type": "address"
        },
        {
          "internalType": "uint256",
          "name": "_value",
          "type": "uint256"
        }
      ],
      "name": "approve",
      "outputs": [
        {
          "internalType": "bool",
          "name": "",
          "type": "bool"
        }
      ],
      "stateMutability": "nonpayable",
      "type": "function"
    },
    {
      "inputs": [
        {
          "internalType": "address",
          "name": "_account",
          "type": "address"
        }
      ],
      "name": "balanceOf",
      "outputs": [
        {
          "internalType": "uint256",
          "name": "",
          "type": "uint256"
        }
      ],
      "stateMutability": "view",
      "type": "function"
    },
    {
      "inputs": [
        {
          "internalType": "uint256",
          "name": "_amount",
          "type": "uint256"
        }
      ],
      "name": "burn",
      "outputs": [],
      "stateMutability": "nonpayable",
      "type": "function"
    },
    {
      "inputs": [],
      "name": "decimals",
      "outputs": [
        {
          "internalType": "uint8",
          "name": "",
          "type": "uint8"
        }
      ],
      "stateMutability": "view",
      "type": "function"
    },
    {
      "inputs": [
        {
          "internalType": "string",
          "name": "_name",
          "type": "string"
        },
        {
          "internalType": "string",
          "name": "_symbol",
          "type": "string"
        },
        {
          "internalType": "uint8",
          "name": "_decimals",
          "type": "uint8"
        }
      ],
      "name": "initializeERC20",
      "outputs": [],
      "stateMutability": "nonpayable",
      "type": "function"
    },
    {
      "inputs": [
        {
          "internalType": "address",
          "name": "_to",
          "type": "address"
        },
        {
          "internalType": "uint256",
          "name": "_amount",
          "type": "uint256"
        }
      ],
      "name": "mint",
      "outputs": [],
      "stateMutability": "nonpayable",
      "type": "function"
    },
    {
      "inputs": [],
      "name": "name",
      "outputs": [
        {
          "internalType": "string",
          "name": "",
          "type": "string"
        }
      ],
      "stateMutability": "view",
      "type": "function"
    },
    {
      "inputs": [],
      "name": "symbol",
      "outputs": [
        {
          "internalType": "string",
          "name": "",
          "type": "string"
        }
      ],
      "stateMutability": "view",
      "type": "function"
    },
    {
      "inputs": [],
      "name": "totalSupply",
      "outputs": [
        {
          "internalType": "uint256",
          "name": "",
          "type": "uint256"
        }
      ],
      "stateMutability": "view",
      "type": "function"
    },
    {
      "inputs": [
        {
          "internalType": "address",
          "name": "_to",
          "type": "address"
        },
        {
          "internalType": "uint256",
          "name": "_value",
          "type": "uint256"
        }
      ],
      "name": "transfer",
      "outputs": [
        {
          "internalType": "bool",
          "name": "",
          "type": "bool"
        }
      ],
      "stateMutability": "nonpayable",
      "type": "function"
    },
    {
      "inputs": [
        {
          "internalType": "address",
          "name": "_from",
          "type": "address"
        },
        {
          "internalType": "address",
          "name": "_to",
          "type": "address"
        },
        {
          "internalType": "uint256",
          "name": "_value",
          "type": "uint256"
        }
      ],
      "name": "transferFrom",
      "outputs": [
        {
          "internalType": "bool",
          "name": "",
          "type": "bool"
        }
      ],
      "stateMutability": "nonpayable",
      "type": "function"
    }
  ],
  "bytecode": "0x608060405234801561001057600080fd5b50610d4d806100206000396000f3fe608060405234801561001057600080fd5b50600436106100b45760003560e01c806340c10f191161007157806340c10f191461018757806342966c681461019a57806370a08231146101ad57806395d89b41146101f5578063a9059cbb146101fd578063dd62ed3e1461021057600080fd5b806306fdde03146100b9578063095ea7b3146100d757806318160ddd146100fa57806323b872dd1461012b5780632bc7bdd21461013e578063313ce56714610153575b600080fd5b6100c1610268565b6040516100ce9190610965565b60405180910390f35b6100ea6100e53660046109cf565b610307565b60405190151581526020016100ce565b7f31c1f8402397e5b1e3d75f3da7207ce6f54556b27afe723742768c4e4be50ce3545b6040519081526020016100ce565b6100ea6101393660046109f9565b61031e565b61015161014c366004610a7e565b6103d4565b005b7f31c1f8402397e5b1e3d75f3da7207ce6f54556b27afe723742768c4e4be50ce25460405160ff90911681526020016100ce565b6101516101953660046109cf565b6104a2565b6101516101a8366004610b08565b6104b8565b61011d6101bb366004610b21565b6001600160a01b031660009081527f31c1f8402397e5b1e3d75f3da7207ce6f54556b27afe723742768c4e4be50ce4602052604090205490565b6100c16104c5565b6100ea61020b3660046109cf565b6104e4565b61011d61021e366004610b43565b6001600160a01b0391821660009081527f31c1f8402397e5b1e3d75f3da7207ce6f54556b27afe723742768c4e4be50ce56020908152604080832093909416825291909152205490565b6060600080516020610cf8833981519152805461028490610b76565b80601f01602080910402602001604051908101604052809291908181526020018280546102b090610b76565b80156102fd5780601f106102d2576101008083540402835291602001916102fd565b820191906000526020600020905b8154815290600101906020018083116102e057829003601f168201915b5050505050905090565b60006103143384846104f1565b5060015b92915050565b6001600160a01b03831660009081527f31c1f8402397e5b1e3d75f3da7207ce6f54556b27afe723742768c4e4be50ce560209081526040808320338452909152812054600080516020610cf88339815191529060001981146103bd57838110156103b057604051637dc7a0d960e11b815233600482015260248101829052604481018590526064015b60405180910390fd5b6103bd86338684036104f1565b6103c88686866105c6565b50600195945050505050565b6103dc61070d565b7f31c1f8402397e5b1e3d75f3da7207ce6f54556b27afe723742768c4e4be50ce754600080516020610cf88339815191529060ff161561045e5760405162461bcd60e51b815260206004820152601a60248201527f45524332303a20616c726561647920696e697469616c697a656400000000000060448201526064016103a7565b8061046a868883610c15565b506001810161047a848683610c15565b5060028101805460ff90931660ff199384161790556007018054909116600117905550505050565b6104aa61070d565b6104b48282610793565b5050565b6104c23382610854565b50565b6060600080516020610cf8833981519152600101805461028490610b76565b60006103143384846105c6565b6001600160a01b03831661051b5760405163e602df0560e01b8152600060048201526024016103a7565b6001600160a01b03821661054557604051634a1406b160e11b8152600060048201526024016103a7565b6001600160a01b0383811660008181527f31c1f8402397e5b1e3d75f3da7207ce6f54556b27afe723742768c4e4be50ce5602090815260408083209487168084529482529182902085905590518481527f8c5be1e5ebec7d5bd14f71427d1e84f3dd0314c0f7b2291e5b200ac8c7c3b92591015b60405180910390a3505050565b6001600160a01b0383166105f057604051634b637e8f60e11b8152600060048201526024016103a7565b6001600160a01b03821661061a5760405163ec442f0560e01b8152600060048201526024016103a7565b6001600160a01b03831660009081527f31c1f8402397e5b1e3d75f3da7207ce6f54556b27afe723742768c4e4be50ce46020526040902054600080516020610cf8833981519152908281101561069c5760405163391434e360e21b81526001600160a01b038616600482015260248101829052604481018490526064016103a7565b6001600160a01b03808616600081815260048501602052604080822087860390559287168082529083902080548701905591517fddf252ad1be2c89b69c2b068fc378daa952ba7f163c4a11628f55a4df523b3ef906106fe9087815260200190565b60405180910390a35050505050565b7fc8fcad8db84d3cc18b4c41d551ea0ee66dd599cde068d998e57d5e09332c131f547fc8fcad8db84d3cc18b4c41d551ea0ee66dd599cde068d998e57d5e09332c131c906001600160a01b031633146104c2576003810154604051600162bed83560e01b031981523360048201526001600160a01b0390911660248201526044016103a7565b6001600160a01b0382166107bd5760405163ec442f0560e01b8152600060048201526024016103a7565b7f31c1f8402397e5b1e3d75f3da7207ce6f54556b27afe723742768c4e4be50ce38054600080516020610cf8833981519152918391600090610800908490610cd6565b90915550506001600160a01b03831660008181526004830160209081526040808320805487019055518581527fddf252ad1be2c89b69c2b068fc378daa952ba7f163c4a11628f55a4df523b3ef91016105b9565b6001600160a01b03821661087e57604051634b637e8f60e11b8152600060048201526024016103a7565b6001600160a01b03821660009081527f31c1f8402397e5b1e3d75f3da7207ce6f54556b27afe723742768c4e4be50ce46020526040902054600080516020610cf883398151915290828110156109005760405163391434e360e21b81526001600160a01b038516600482015260248101829052604481018490526064016103a7565b6001600160a01b0384166000818152600484016020908152604080832087860390556003860180548890039055518681529192917fddf252ad1be2c89b69c2b068fc378daa952ba7f163c4a11628f55a4df523b3ef910160405180910390a350505050565b600060208083528351808285015260005b8181101561099257858101830151858201604001528201610976565b506000604082860101526040601f19601f8301168501019250505092915050565b80356001600160a01b03811681146109ca57600080fd5b919050565b600080604083850312156109e257600080fd5b6109eb836109b3565b946020939093013593505050565b600080600060608486031215610a0e57600080fd5b610a17846109b3565b9250610a25602085016109b3565b9150604084013590509250925092565b60008083601f840112610a4757600080fd5b50813567ffffffffffffffff811115610a5f57600080fd5b602083019150836020828501011115610a7757600080fd5b9250929050565b600080600080600060608688031215610a9657600080fd5b853567ffffffffffffffff80821115610aae57600080fd5b610aba89838a01610a35565b90975095506020880135915080821115610ad357600080fd5b50610ae088828901610a35565b909450925050604086013560ff81168114610afa57600080fd5b809150509295509295909350565b600060208284031215610b1a57600080fd5b5035919050565b600060208284031215610b3357600080fd5b610b3c826109b3565b9392505050565b60008060408385031215610b5657600080fd5b610b5f836109b3565b9150610b6d602084016109b3565b90509250929050565b600181811c90821680610b8a57607f821691505b602082108103610baa57634e487b7160e01b600052602260045260246000fd5b50919050565b634e487b7160e01b600052604160045260246000fd5b601f821115610c1057600081815260208120601f850160051c81016020861015610bed5750805b601f850160051c820191505b81811015610c0c57828155600101610bf9565b5050505b505050565b67ffffffffffffffff831115610c2d57610c2d610bb0565b610c4183610c3b8354610b76565b83610bc6565b6000601f841160018114610c755760008515610c5d5750838201355b600019600387901b1c1916600186901b178355610ccf565b600083815260209020601f19861690835b82811015610ca65786850135825560209485019460019092019101610c86565b5086821015610cc35760001960f88860031b161c19848701351681555b505060018560011b0183555b5050505050565b8082018082111561031857634e487b7160e01b600052601160045260246000fdfe31c1f8402397e5b1e3d75f3da7207ce6f54556b27afe723742768c4e4be50ce0a264697066735822122017e3e48ed45f5f318ba2e6d30a8e6b8c2bf11b4b55033d845fa7fb38989b579f64736f6c63430008140033",
  "linkReferences": {},
  "deployedLinkReferences": {}
}