{
  "_format": "hh-sol-artifact-1",
  "contractName": "CounterFacet",
  "sourceName": "contracts/facets/CounterFacet.sol",
  "abi": [
    {
      "anonymous": false,
      "inputs": [
        {
          "indexed": false,
          "internalType": "uint256",
          "name": "newValue",
          "type": "uint256"
        }
      ],
      "name": "CounterDecremented",
      "type": "event"
    },
    {
      "anonymous": false,
      "inputs": [
        {
          "indexed": false,
          "internalType": "uint256",
          "name": "newValue",
          "type": "uint256"
        }
      ],
      "name": "CounterIncremented",
      "type": "event"
    },
    {
      "anonymous": false,
      "inputs": [],
      "name": "CounterReset",
      "type": "event"
    },
    {
      "inputs": [],
      "name": "decrement",
      "outputs": [],
      "stateMutability": "nonpayable",
      "type": "function"
    },
    {
      "inputs": [],
      "name": "getCounter",
      "outputs": [
        {
          "internalType": "uint256",
          "name": "",
          "type": "uint256"
        }
      ],
      "stateMutability": "view",
      "type": "function"
    },
    {
      "inputs": [],
      "name": "increment",
      "outputs": [],
      "stateMutability": "nonpayable",
      "type": "function"
    },
    {
      "inputs": [
        {
          "internalType": "uint256",
          "name": "_amount",
          "type": "uint256"
        }
      ],
      "name": "incrementBy",
      "outputs": [],
      "stateMutability": "nonpayable",
      "type": "function"
    },
    {
      "inputs": [],
      "name": "resetCounter",
      "outputs": [],
      "stateMutability": "nonpayable",
      "type": "function"
    }
  ],
  "bytecode": "0x608060405234801561001057600080fd5b5061037f806100206000396000f3fe608060405234801561001057600080fd5b50600436106100575760003560e01c806303df179c1461005c5780632baeceb7146100715780638ada066e14610079578063d09de08a1461009b578063dbdf7fce146100a3575b600080fd5b61006f61006a3660046102ce565b6100ab565b005b61006f61012f565b60008051602061032a8339815191525460405190815260200160405180910390f35b61006f610213565b61006f610291565b60008051602061032a83398151915280547f31c1f8402397e5b1e3d75f3da7207ce6f54556b27afe723742768c4e4be50ce09183916000906100ee9084906102fd565b909155505060068101546040519081527f3cf8b50771c17d723f2cb711ca7dadde485b222e13c84ba0730a14093fad6d5c9060200160405180910390a15050565b60008051602061032a833981519152547f31c1f8402397e5b1e3d75f3da7207ce6f54556b27afe723742768c4e4be50ce0906101bd5760405162461bcd60e51b8152602060048201526024808201527f436f756e7465723a2063616e6e6f742064656372656d656e742062656c6f77206044820152637a65726f60e01b606482015260840160405180910390fd5b60018160060160008282546101d29190610316565b909155505060068101546040519081527f1a00a27c962d5410357331e1a8cffff62058bd0161ad624818df31152f1eeb45906020015b60405180910390a150565b60008051602061032a83398151915280547f31c1f8402397e5b1e3d75f3da7207ce6f54556b27afe723742768c4e4be50ce0916001916000906102579084906102fd565b909155505060068101546040519081527f3cf8b50771c17d723f2cb711ca7dadde485b222e13c84ba0730a14093fad6d5c90602001610208565b600060008051602061032a8339815191528190556040517f79e13020b0c9b840ddf270793ab373525f9456e10bbba08dbe94217994736ec89190a1565b6000602082840312156102e057600080fd5b5035919050565b634e487b7160e01b600052601160045260246000fd5b80820180821115610310576103106102e7565b92915050565b81810381811115610310576103106102e756fe31c1f8402397e5b1e3d75f3da7207ce6f54556b27afe723742768c4e4be50ce6a2646970667358221220e97fe6c9aba8f5bd737e614d798b0cdd91409d59dc67e1b5bf458c97e348687864736f6c63430008140033",
  "linkReferences": {},
  "deployedLinkReferences": {}
}